:020000040800F2
:10000000A8250020DD010008B72200085B210008B8
:10001000B5220008D90D00081125000800000000D5
:10002000000000000000000000000000ED220008B9
:10003000990E000800000000EB220008EF220008E3
:10004000F7010008F7010008F7010008F7010008B0
:10005000F7010008F7010008F7010008F7010008A0
:10006000F7010008F7010008F7010008F701000890
:10007000F7010008F7010008F7010008F701000880
:10008000F7010008DD0D0008F7010008F70100087E
:10009000F7010008F7010008F7010008F701000860
:1000A000F7010008F7010008F7010008F701000850
:1000B000F7010008F7010008F7010008F701000840
:1000C000F7010008F7010008F7010008F701000830
:1000D000F7010008F7010008F7010008F701000820
:1000E000F7010008F7010008F7010008F701000810
:1000F000F7010008F7010008F7010008F701000800
:10010000F7010008F7010008F7010008F7010008EF
:10011000F7010008F7010008F7010008F7010008DF
:10012000E90D0008F7010008F7010008F7010008D1
:10013000F70100080000000000000000F7010008BF
:10014000F7010008F7010008F7010008F7010008AF
:10015000F7010008F7010008F7010008F70100089F
:10016000F7010008F7010008F7010008F70100088F
:10017000F7010008F7010008F7010008000000007F
:1001800000000000F701000800000000000000006F
:10019000F70100080000000000000000F70100085F
:1001A000000000000000000000000000F70100084F
:1001B000F7010008F7010008F7010008F70100083F
:1001C000F7010008DFF810D000F07CF80048004785
:1001D00065250008AFF30080A82500200648804769
:1001E00006480047FEE7FEE7FEE7FEE7FEE7FEE71C
:1001F000FEE7FEE7FEE7FEE791230008C5010008E1
:100200002DE9F05F0546002092469B46884606464B
:10021000814640241BE0284641464746224600F0DE
:1002200041F853465A46C01A914110D31146184618
:10023000224600F028F82D1A67EB01084F462246A7
:100240000120002100F01FF817EB00094E41201E8D
:10025000A4F10104DFDC484631462A464346BDE8A6
:10026000F09FD2B201E000F8012B491EFBD270478B
:100270000022F6E710B513460A4604461946FFF772
:10028000F0FF204610BD202A04DB203A00FA02F1DC
:10029000002070479140C2F1200320FA03F3194374
:1002A00090407047202A04DB203A21FA02F0002116
:1002B000704721FA02F3D040C2F120029140084376
:1002C00019467047064C074D06E0E06840F0010310
:1002D00094E8070098471034AC42F6D3FFF776FF56
:1002E00038440108584401082DE9F041F9B10023D0
:1002F0006FF0010C02EB430E32F81350BEF80240CF
:100300000CEA55050CEA540430F80580075B00EB55
:10031000050E0619475320F8048002337488BEF88E
:1003200002509BB28B42AEF802407580E2D3BDE82A
:10033000F08170B51D4603880446012A0E460ED191
:10034000FF2B1BDDB3F5806F26DBB3F5805F3BD061
:10035000B3F5006F32D0B3F5806F35D04BE0FF2B93
:1003600013DDB3F5806F1EDBB3F5805F3DD0B3F5D1
:10037000006F34D0B3F5806F37D03CE03F2B19DCF1
:10038000102B21D0202B19D035E03F2B23DC102B54
:100390002BD0202B23D02EE0B3F5807F14D0B3F5E3
:1003A000007F0BD027E0B3F5807F1ED0B3F5007F30
:1003B00015D020E0402B07D0802B1CD1626830463E
:1003C000194600F021F816E062683046194601230C
:1003D00000F0D2F80FE0402B07D0802B0BD16268E1
:1003E0003046194600F06CF805E062683046194660
:1003F000012300F0DBF935B1A189A2683046BDE8E0
:100400007040FFF771BF70BD2DE9F0414FF0000C57
:100410009046064600EB4107BCEB510F4FEA5104F2
:1004200040D0002156F8213057F8215058F82120AB
:1004300093FA2CF395FA2CF5D3FA15F093FA25F3E9
:1004400042FB00F522FB10F046F82130C0EA2540BF
:1004500047F8210001318C42E4D130462146424622
:10046000022300F089F8384621464246022300F074
:1004700083F8ACB1301D00BF30F8041C30F8022CFA
:1004800003884788490052005B007F0020F8041C65
:1004900020F8022C03804780013C00F10800EBD1DA
:1004A000BDE8F081304621464246022300F064F860
:1004B0003846214642460223BDE8F04100F05CB8D0
:1004C0002DE9F0414FF0000C9046064600EB410745
:1004D000BCEB510F4FEA510440D0002156F82130B7
:1004E00057F8215058F8212093FA2CF395FA2CF55F
:1004F000D3FA15F093FA25F322FB00F542FB10F036
:1005000046F82130C0EA254047F8210001318C42ED
:10051000E4D1304621464246022300F047F93846EE
:1005200021464246022300F041F9ACB1301D00BF24
:1005300030F8041C30F8022C038847884900520028
:100540005B007F0020F8041C20F8022C0380478009
:10055000013C00F10800EBD1BDE8F08130462146B6
:100560004246022300F022F9384621464246022341
:10057000BDE8F04100F01AB92DE9F04F8CB00891B8
:100580008908164601EB41024FEA820A03EB430257
:10059000864690009F000593DB004FF0000B354628
:1005A00034468C460B970A930396CDF824E000BF9F
:1005B000DEF800205EF8313092FA2BF293FA2BF33A
:1005C00092FA2BF293FA2BF392FA13F75EF821804A
:1005D000D2FA13F95EF80A3098FA2BF893FA2BF353
:1005E00098FA2BF893FA2BF398FA13F397FA23F26D
:1005F000CEF800202A68D7FA13F342FB03F822FB57
:1006000013F25EF82170C2EA28424EF821205EF80B
:100610000A2097FA2BF392FA2BF293FA2BF392FA21
:100620002BF2D3FA12F22368A9FA12F743FB07F868
:1006300023FB17F3E9FA12F2C3EA28434EF83130EC
:100640003368BCF1010C43FB02F723FB12F20644B2
:10065000C2EA27424EF80A200B9A0EF1040E144407
:100660000A9A1544A4D1089B142B7DD3099E1A46DF
:10067000009100BF05980D46800089080292059000
:100680004FF0FF3001EB410200EB950006EB8209D1
:1006900006EBC107019106EB810C002100220490BA
:1006A00007919942059902EB010006904ED20399F9
:1006B000DDF81CE051F822000B9051F8320002EBFB
:1006C000420251F822A00A9056F82E2057F82E80A8
:1006D0005CF82EB059F82E3092FA18F19BFA13F309
:1006E00000203C4691FA23F797FA20F70A98D1FAAE
:1006F00023F1099E40FB01F320FB11F146F82E7017
:10070000C1EA23415CF82E304CF82E1059F82E1017
:10071000D2FA18F2D3FA11F10B98A2FA21F340FBA6
:1007200003F720FB13F3E2FA21F1C3EA27424AFB65
:1007300001F32AFB11F144F82E20C1EA2341089B62
:1007400049F82E10AE4427469E45BDD3079904981C
:100750000131069A8142A3D90298019950284FEAA3
:10076000900287D2009901E0099E00BF3068D6F858
:1007700004C0B268F36890FA12F79CFA13F4D0FA46
:1007800012F0DCFA13F397FA24F5D7FA24F7A0FA5B
:1007900023F2E0FA23F035607760B260F06001394F
:1007A00006F11006E2D10CB0BDE8F08F2DE9F04F54
:1007B0008CB008918908164601EB41024FEA820A83
:1007C00003EB4302864690009F000593DB004FF049
:1007D000000B354634468C460B970A930396CDF8AA
:1007E00024E000BFDEF800205EF8313092FA2BF2F0
:1007F00093FA2BF392FA2BF293FA2BF392FA13F764
:100800005EF82180D2FA13F95EF80A3098FA2BF8D4
:1008100093FA2BF398FA2BF893FA2BF398FA13F335
:1008200097FA23F2CEF800202A68D7FA13F322FBB6
:1008300003F842FB13F25EF82170C2EA28424EF838
:1008400021205EF80A2097FA2BF392FA2BF293FA02
:100850002BF392FA2BF2D3FA12F22368E9FA12F789
:1008600023FB07F843FB17F3A9FA12F2C3EA284364
:100870004EF831303368BCF1010C23FB02F743FB27
:1008800012F20644C2EA27424EF80A200B9A0EF1F1
:10089000040E14440A9A1544A4D1089B142B7DD34A
:1008A000099E1A46009100BF05980D4680008908F0
:1008B000029205904FF0FF3001EB410200EB9500F2
:1008C00006EB820906EBC107019106EB810C0021C2
:1008D0000022049007919942059902EB01000690CD
:1008E0004ED20399DDF81CE051F822000B9051F82C
:1008F000320002EB420251F822A00A9056F82E2054
:1009000057F82E805CF82EB059F82E3092FA18F174
:100910009BFA13F300203C4691FA23F797FA20F74D
:100920000A98D1FA23F1099E20FB01F340FB11F153
:1009300046F82E70C1EA23415CF82E304CF82E1098
:1009400059F82E10D2FA18F2D3FA11F10B98E2FAF4
:1009500021F320FB03F740FB13F3A2FA21F1C3EAD2
:1009600027422AFB01F34AFB11F144F82E20C1EA89
:100970002341089B49F82E10AE4427469E45BDD31F
:10098000079904980131069A8142A3D902980199E6
:1009900050284FEA900287D2009901E0099E00BFDB
:1009A0003068D6F804C0B268F36890FA12F79CFA7F
:1009B00013F4D0FA12F0DCFA13F397FA24F5D7FA0D
:1009C00024F7E0FA23F2A0FA23F035607760B260F2
:1009D000F060013906F11006E2D10CB0BDE8F08FED
:1009E00080B546F2684C4AF2684E89B2C0F6000CF7
:1009F000C0F6000E0160C0E903CE0271B1F5007FC0
:100A00004FF0FF0243710FDBB1F5006F18DB2ED002
:100A1000B1F5005F31D0B1F5805F49D146F20841B0
:100A2000C0F60001022240E07F2915DC20292AD0EF
:100A300040293DD146F22841C0F60001802234E031
:100A4000B1F5007F26D0B1F5806F31D146F2484133
:100A5000C0F60001082228E0802921D0B1F5807F6E
:100A600026D146F2E831C0F6000120221DE046F210
:100A7000D831C0F60001042217E046F23841C0F632
:100A80000001012211E046F2F831C0F600014FF4F6
:100A900080720AE046F21841C0F60001102204E01C
:100AA00046F25841C0F600014022826000224161B6
:100AB00050B280BD2DE9F04182B014460546476929
:100AC000027900680E46012A4FEA50081BD1D5E989
:100AD00002C22B69304641460094CDF804C000F0B4
:100AE0007BF82A796B7938462146FFF722FC286883
:100AF000B8B1002134F81120520024F8112001313E
:100B00008142F7D30DE06B7938463146FFF711FC8F
:100B1000D5E902722B69304641460094019700F0F6
:100B200003F802B0BDE8F0812DE9F04F81B0B1F1DA
:100B3000010A4FEA4107009733D0DDE90A76002524
:100B400007EBC10102393746544600BF00EB85066A
:100B5000D6F804B052F8276050F824E053F827C0C4
:100B60004BFB06F84EFB1CF92EFB0C8C2BFB169E48
:100B70000A9E013C06EB85084FEA1E46A8F806606F
:100B80004FEA1C46A8F8046021F8026C0026A6EB88
:100B90001E460E800B9E01353744AA45A1F1040183
:100BA000D4D1B0F90010B0F902200A9B891A009A3A
:100BB000490823F8121042F00101002223F8112005
:100BC000B0F90010B0F902005A80084440081880BB
:100BD00001B0BDE8F08F00002DE9F047F1B1DDE98B
:100BE00008EC0024002500BF50F8219053F8257030
:100BF00050F804A049FB07F829FB17F752F82560C5
:100C00007F422AFB068846FB1A76C6EA28464EF83B
:100C100004600139654404F10404E5D1BDE8F087BE
:100C200010B50146806B026C12F0500F05D0026CBB
:100C3000D20626D500F06EFA10BD016C41F40071A9
:100C4000016401688A6812F0405F17D1027EAAB978
:100C5000CA6A12F4700F02D08A6852050ED44A682C
:100C600022F020024A60016C21F480710164016C61
:100C7000C90403D4016C41F00101016400F0E0F902
:100C800010BD806BC26CBDE810400846104710B51F
:100C9000806B40210164416C41F00401416400F02B
:100CA00039FA10BD10B5806B00F004FA10BD0000D9
:100CB000464910B54A6822F440324A604A6843689F
:100CC0001A434A6001684A6822F480724A600168E7
:100CD0004A68036942EA03224A6001684A6822F0CE
:100CE00040724A6001684A6883681A434A60016832
:100CF0008A6822F400628A6001688A68C3681A43BD
:100D00008A60816A6FF07062D14201688A6822F05D
:100D100070628A6001688A680CD0836A1A438A60AC
:100D200001688A6822F040528A6001688A68C36A52
:100D30001A4301E022F040528A6001688A6822F07A
:100D400002028A6001688A68037E42EA43028A607E
:100D500090F82010002901684A680FD042F4006220
:100D60004A6001684A6822F460424A6001684A6841
:100D7000174C436A04EB43331A4301E022F4006248
:100D80004A600168CA6A22F47002CA620168CA6ACB
:100D9000838B104C04EB03531A43CA6201688A68C0
:100DA00022F400728A6001688A6890F8303042EA62
:100DB00043228A6001688A6822F480628A6001683E
:100DC0008A68406942EA8020886010BD00230140A3
:100DD00000E0FFFF0000F0FFFEE70000014800F028
:100DE000BBBA000044210020014800F0B5BA000061
:100DF000A020002001681823CAB2103AB2FBF3F217
:100E0000054B6FF30901032A9B5CC36500D9091DDB
:100E10008165084670470000C025000810B50146EE
:100E200000208B698A6A4FF0C07453B1B3F5005F3C
:100E300015D072B1012A0CD0022A0AD0032A09D196
:100E400004E01AB1012A06D0022A03D1C96AC901F5
:100E500000D5012010BDC96AA142FAD010BD002AF8
:100E6000F7D0012AF2D0022AF3D0032AF3D010BD22
:100E700030B50468256825F4802525600468636022
:100E80008368402B036803D099600068C26030BD5E
:100E90009A600068C16030BD704772B6FEE700001E
:100EA000F0B503460121002041260A465FEAC1272A
:100EB00003EB410433F9115034F902CC654508DDE8
:100EC000B4F90240A54204DD91FBF6F402FA04F401
:100ED0002043491CB942EBDBF0BD000078B500248B
:100EE000009490F83C20012A19D0012280F83C207F
:100EF0000A6807230568092A13D9EE680A3A02EB43
:100F0000420293409E43EE600B788A680A3B03EBF3
:100F100043039A400368DD682A43DA6010E0022048
:100F200078BD2E6902EB420293409E432E610B78FE
:100F30008A6803EB43039A4003681D692A431A61D8
:100F40004A681F23072A13D205686E6B521E02EBF4
:100F5000820293409E436E630A8893B20A79521EBE
:100F600002EB820293400268556B2B43536327E0E8
:100F700005680D2A12D22E6BD21F02EB820293401B
:100F80009E432E630B790A88DB1F92B203EB830327
:100F90009A4003681D6B2A431A6311E0EE6A0D3A0A
:100FA00002EB820293409E43EE620B790A880D3B6E
:100FB00092B203EB83039A400368DD6A2A43DA6244
:100FC0001B4B0568194A9D420AD10D68122D07D1A5
:100FD000556825F400055560556845F48005556051
:100FE00005689D421DD1134D0B68AB4201D0112BFA
:100FF00017D1536823F480035360536843F400030C
:1010000053600968A9420CD10B490C4A0968B1FB2D
:10101000F2F101EB8101490000E0491E0091002935
:10102000FBD180F83C40002078BD00000023014047
:1010300000200140120000101C00002040420F0060
:10104000154A10B5A2F5006101F5C150FFF732FD58
:101050001148FFF725FF114C20221149606001F073
:101060002BF9606801F074FA82B24FF47A730C497C
:101070000C4801F019F8002020704FF480642246DB
:1010800009490A4800F0BEF82146BDE81040002298
:10109000074800F0C1BB0000201000200000002025
:1010A00020200020002100202000002058200020C7
:1010B000000C0240124A10B5A2F5805102F5815091
:1010C000FFF7F8FC0E48FFF7EBFE0E4C20220E490E
:1010D000606001F0F1F8606801F03AFA82B24FF412
:1010E0007A730949094800F0DFFF00202070BDE84D
:1010F00010404FF480620249054800F083B80000B8
:1011000020100020000000202020002000210020CE
:1011100058200020704770B504004FF0000503D040
:10112000206C002610B107E0012070BD204600F0C1
:101130001DF8666484F83C60206CC00610D4206CF6
:1011400020F4885040F0020020642046FFF7B0FDF4
:101150006664206C20F0020040F00100206400E092
:10116000012584F83C60284670BD000070B586B04B
:10117000064614216846FFF77BF81D49306888420F
:1011800034D11C480025016841F480710160006879
:1011900000F48070059017481438016841F001018F
:1011A00001600068694600F0010005900120009090
:1011B0000320CDE90105104800F040FA104C0F481B
:1011C000C4E900050015A560C4E903504000606152
:1011D0008000A0614011C4E907052046656200F067
:1011E0008BF908B1FFF759FEB463A66306B070BD72
:1011F00000200140443802400000024010640240D8
:10120000A0200020F8B5044600200E46009094F877
:101210003C10012907D0012184F83C1021688B681B
:10122000DB0702D011E00220F8BD8B6843F0010318
:101230008B604049404B0968B1FBF3F101EB410180
:1012400000E0491E00910029FBD121688B68DB0575
:1012500003D58B6823F480738B6021688B68DB0770
:101260005DD0236C40F20165AB4343F4807323648B
:101270004968490505D5216C21F4005141F480519C
:101280002164216CC90404D5616C21F006016164FC
:1012900000E0606484F83C00A16B2948274DC863D6
:1012A000A16B28480864A16B2748C86421686FF0C7
:1012B000220008602068416841F080614160206838
:1012C000816841F4807181602168134632464C3157
:1012D000A06B00F07BF968681C49C006206806D046
:1012E000884224D1816811F0405F13D01FE088420A
:1012F000F8D0174A904203D1D1F80423D206F1D096
:10130000144A904213D1D1F8041301F01F0110299F
:10131000E8D30CE0816841F08041816007E0206CF7
:1013200040F010002064606C40F001006064002018
:10133000F8BD00001C00002040420F0000230140C7
:10134000210C0008A50C00088F0C000800200140AB
:1013500000210140002201402DE9F84304464FF0EE
:101360000009CDF8009063484FF41651A56D006850
:10137000B0FBF1F72E6894F85C10082000FA01F138
:1013800031420FD021680A6852070BD50A6822F053
:1013900004020A6094F85C108840A860606D40F018
:1013A0000100606594F85C104FF0010808FA01F044
:1013B000304208D021684969090604D5A860606DEB
:1013C00040F00200606594F85C10042088403042D0
:1013D00008D021680968890704D5A860606D40F0CD
:1013E0000400606594F85C1010208840304218D0EA
:1013F00021680968090714D5A860206801684903B5
:1014000004D50068000308D5A16C07E00168C90590
:1014100003D4016821F008010160216C09B1204664
:10142000884794F85C1020208840304231D02168F1
:101430000968C9062DD5A86094F8350005282068EC
:10144000016806D0490347D5006800031DD4616CCC
:101450001CE021F0160101602068416921F0800143
:101460004161206C08B9A06C20B12068016821F0AE
:101470000801016094F85C103F208840A86084F85F
:10148000349084F83580216D1FE0E16B09B120466E
:101490008847606D00282BD0606DC00714D00520F0
:1014A00084F835002068016821F00101016000988E
:1014B000401C0090B84203D820680068C007F6D1ED
:1014C00084F8349084F83580E16C002910D001B0A4
:1014D0002046BDE8F04308470168C905D5D4016836
:1014E00021F01001016084F8349084F83580CCE755
:1014F000BDE8F8831C0000202DE9F041044600F00F
:1015000091F906465CB1002584F83450022084F835
:1015100035002068016821F0010101600DE0012023
:10152000BDE8F08100F07EF9801B052805D9202058
:101530006065032084F83500F2E720680068C00782
:10154000F0D12268116820480140D4E90103184312
:10155000D4E903363343184363691843A369184336
:10156000E3691843236A18430843616A042903D1D5
:10157000D4E90B1319430843106020684069666A78
:1015800020F0070130460E43012704280CD1A06A41
:101590000643E06A40B12046FFF740FC20B14020FE
:1015A000606584F83570BAE7206846612046FFF729
:1015B00021FC94F85C203F2191408160656584F8AE
:1015C00035700020ACE700003F8010F02DE9F041BD
:1015D0000446866D90F83400002501280DD00120C6
:1015E00084F8340094F835700020012F07D084F877
:1015F000340002252846BDE8F0810220FBE70227DF
:1016000084F8357060652046FFF732FC94F85C1072
:101610003F208840B0602068016841F016010160F9
:10162000206C20B12068016841F008010160206849
:10163000016841F001010160DCE700002DE9F84F8D
:10164000DFF8ACA1002201240AF1040B03254FF0BE
:101650000F090BF1040E00BF0B6804FA02F63340C9
:10166000B34272D10F7907F00307012F01D0022F87
:1016700016D187684FEA420805FA08FC27EA0C07EA
:10168000D1F80CC00CFA08FC4CEA070CC0F808C0F2
:101690004768B7430E79C6F3001696403E4346604E
:1016A0000E79F643B6070AD0C6684FEA420C05FA2F
:1016B0000CF7BE438F6807FA0CF73743C7600E7903
:1016C00006F00306022E10D1D60800EB8608D8F8E3
:1016D000206057074FEAD76C09FA0CF7BE430F6931
:1016E00007FA0CF73743C8F8207006684FEA420C37
:1016F00005FA0CF7BE430F7907F0030707FA0CF75A
:10170000374307604E68F6006BD53A4E376847F4AA
:1017100080473760366822F0030706F4804600965B
:10172000354E07EB060CDCF8086897074FEA177888
:1017300009FA08F7BE43314FB84201D100271FE034
:101740002F4FB84202D101271AE04AE02D4FB8428C
:1017500001D1022714E02C4FB84201D103270FE03A
:101760002A4FB84201D104270AE0294FB84201D1DB
:10177000052705E0274FB84201D1062700E00727DB
:1017800007FA08F73743CCF80878DAF800605746CC
:10179000D1F804C09E435FEACC3C00D51E433E60B6
:1017A000DBF800605F46D1F804C09E435FEA8C3CE2
:1017B00000D51E433E60DEF800607746D1F804C0D5
:1017C0009E435FEACC2C00D51E433E60084F0C3789
:1017D0003E68D1F804C09E435FEA8C2C00D51E43BE
:1017E0003E60521C102AFFF437AFBDE8F88F0000AE
:1017F000003C0140443802400030014000000240FB
:101800000004024000080240000C024000100240A8
:1018100000140240001802400AB1816170470904B7
:10182000FBE70000014880687047000010000020BE
:1018300002488168027811448160704710000020DE
:101840000B4810B5016841F400710160016841F472
:1018500080610160016841F480710160032000F043
:101860006FF8002000F006F800F024F8002010BD0A
:10187000003C024070B50D4D04464FF47A71287853
:10188000B1FBF0F00A490968B1FBF0F000F074FB1D
:1018900048B9102C07D200222146501E00F030F823
:1018A00000206C6070BD012070BD000010000020A1
:1018B0001C0000200A4808B5016841F4804101601D
:1018C000006800F4804000900548001F016841F066
:1018D00080510160006800F08050009008BD000059
:1018E00044380240002809DB00F01F02012191402A
:1018F0004009800000F1E020C0F8001170470000AE
:10190000F0B40E4B1B680C46C3F30223C3F107056A
:10191000042D00D90425191D072901D2002300E058
:10192000DB1E012606FA05F1491E214099409E4022
:10193000761E16403143F0BC00F0EBBD0CED00E02C
:10194000064900F0070208684FF6FF03184040EA16
:101950000220034A10430860704700000CED00E0CD
:101960000000FA052DE9F8431748016841F080515D
:1019700001600068154F00F08050012600903E6421
:10198000FFF750FF05464FF47A78114C05E000BF91
:10199000FFF748FF401B40450DD86068C003F7D5EE
:1019A0007E64FFF73FFF0546464607E0FFF73AFF34
:1019B000401BB04202D90320BDE8F8836068800371
:1019C000F4D50020F8E700004038024000000E4245
:1019D000007000402DE9F0470E46050065D0DFF8A5
:1019E0001481D8F80000F7B200F00F00B04207D21F
:1019F00088F80070D8F8000000F00F00B04254D111
:101A000028683D4C810712D5400703D5206840F473
:101A1000E05020602878000703D5206840F460403B
:101A200020602068A96820F0F00008432060287832
:101A3000C0072DD0304968680839012812D0022823
:101A400013D0032811D00968890700292DDA2168ED
:101A500021F0030101432160FFF7E4FE814641F2DA
:101A6000883A0EE009688903EFE709688901ECE725
:101A7000FFF7D8FEA0EB0901514502D90320BDE8CC
:101A8000F0872068696800F00C00B0EB810FEFD19F
:101A9000D8F80010404601F00F01B14207D9077095
:101AA000006800F00F00B04201D00120E7E728787D
:101AB000400705D52068E96820F4E050084320601D
:101AC0002878000706D52068296920F4604040EA9C
:101AD000C100206000F038F82168084AC1F3031102
:101AE000515CC8400649086006480068FFF7C2FE1E
:101AF0000020C4E7003C024008380240C825000826
:101B00001C000020140000200448054900680968F2
:101B1000044AC1F38221515CC84070471C00002078
:101B200008380240D82500080448054900680968BB
:101B3000044AC1F34231515CC84070471C00002088
:101B400008380240D8250008224810B5006810F077
:101B50000C02214815D02149042A11D01D4C241F04
:101B6000082A0FD00C2A0CD12268236802F03F0209
:101B70005B0221D52068C0F38810A0FB010120E0A2
:101B8000084610BD2268236802F03F025B0205D5BB
:101B90002068C0F38810A0FB010104E02168C1F3B4
:101BA0008811A1FB00010023FEF72AFB2168C1F385
:101BB0000141491C49000AE02168C1F38811A1FBD9
:101BC00000010023FEF71CFB2168C1F30271B0FB8A
:101BD000F1F010BD083802400024F40040787D0187
:101BE0002DE9F84F04007DD0DFF878B32078ABF111
:101BF0000407C007A7F1040550D0DBF800105846D1
:101C0000C1F3810101290FD00168C1F381010229CB
:101C100002D13968490207D40068C0F38100032863
:101C200009D13868400206D52868800336D5606837
:101C30000028D8D032E06068B0F5803F10D0B0F511
:101C4000A02F286810D020F480302860286820F465
:101C5000802028606068A0B1FFF7E4FD06460CE034
:101C6000286840F48030F4E740F480202860F7E7EB
:101C7000FFF7D8FD801B642876D828688003F7D545
:101C80000CE0FFF7CFFD064605E000BFFFF7CAFDF9
:101C9000801B6428F0D828688003F7D42078DFF808
:101CA000C89280074FF0000A44D5DBF80010584670
:101CB00011F00C0F0FD00168C1F38101022902D18C
:101CC0003968490207D50068C0F3810003280AD1AA
:101CD0003868400207D42868800715D5E0680128D5
:101CE00000D111E03AE1E068B0B10120C9F800008C
:101CF000FFF798FD064604E0FFF794FD801B0228DD
:101D0000BAD828688007F7D52868216920F0F8003C
:101D100040EAC10028600DE0C9F800A0FFF782FD8D
:101D2000064604E0FFF77EFD801B02281CD82868C9
:101D30008007F7D42078000727D5DFF828828B4862
:101D4000616908F16C0881B101210160FFF76AFD4A
:101D5000064604E0FFF766FD801B022804D8D8F889
:101D600000008007F6D510E089E0C0F800A0FFF77A
:101D700059FD064605E000BFFFF754FD801B022811
:101D80007DD8D8F800008007F6D42078400769D5C0
:101D900074484FF0000838300068C0000BD4714818
:101DA0003830016841F08051016000684FF001084F
:101DB00000F0805000906E4E3068C00511D430683D
:101DC00040F480703060FFF72DFD009006E000BF0A
:101DD000FFF728FD0099401A022850D83068C00546
:101DE000F6D5604EA068683601280FD00528306807
:101DF00010D020F001003060306820F00400306026
:101E0000A068B8B1FFF70EFD00900FE0306840F019
:101E10000100F4E740F004003060F7E7FFF702FD4F
:101E20000099411A41F28830814264D830688007B5
:101E3000F4D50EE0FFF7F6FC009007E0FFF7F2FCA8
:101E40000099411A41F28830814254D830688007A5
:101E5000F4D4B8F1000F05D042483830016821F0C1
:101E600080510160A069A8B3DBF80010C1F38101C3
:101E7000022947D00228C9F860A005D000E03AE066
:101E8000FFF7D0FC044639E0FFF7CCFC064604E03F
:101E9000FFF7C8FC801B02282DD828688001F7D4E2
:101EA000F4E907010843E168324A490802EB0141BD
:101EB000A26841EA82110843217C40EA0160217D49
:101EC00040EA017038600120C9F86000FFF7AAFC01
:101ED000044606E044E000BFFFF7A4FC001B022814
:101EE00009D828688001F7D53AE000BFFFF79AFCCF
:101EF000001B022802D90320BDE8F88F2868800162
:101F0000F4D42DE00128F7D03868E26900F48001AC
:101F1000914223D1226A00F03F0191421ED147F63F
:101F2000C071626A0140B1EB821F17D1A26A4FF003
:101F3000FF3300F4403103EB5202B1EB024F0DD1FD
:101F400094F82C2000F07061B1EB026F06D194F888
:101F5000301000F0E040B0EB017F01D00120CBE772
:101F60000020C9E70838024000004742800E47427F
:101F7000007000400000FFFF10B5401EB0F1807FF0
:101F800001D3012010BD4FF0E02460610F216017E4
:101F900000F0BFFA0020A06107202061002010BDE2
:101FA00070B5040004D094F83D00002510B106E09F
:101FB000012070BD84F83C50204600F023F8242016
:101FC00084F83D002068C16821F40051C1602046BA
:101FD00000F0E6F92068016921F490410161206870
:101FE000416921F02A0141612068C16841F4005132
:101FF000C1602564202084F83D0084F83E00002064
:1020000070BD000070B586B0064614216846FEF724
:102010002FF920493068884239D11F4800250168CE
:1020200041F400310160006800F4003005901A4866
:102030001038016841F0010101600068694600F054
:10204000010005900C2000900220CDE9010503203D
:102050000390072004901148FFF7F0FA114C104844
:1020600020604FF0006060604020C4E9020500017C
:10207000C4E904058010C4E9065025622046656263
:10208000FFF73AFA08B1FEF708FF7463A66306B0DB
:1020900070BD000000440040403802400000024093
:1020A000A0600240442100202DE9F843044690F846
:1020B0003D001F4616460D4620284CD1C5B1BEB185
:1020C00094F83C00012846D0012084F83C004FF0F1
:1020D0000008C4F84080212084F83D00FFF7A2FBEF
:1020E000A6848146E684A068B0F5805F03D004E052
:1020F0000120BDE8F883206928B12E465FF0000575
:1021000084F83C800EE00026FAE78021204600F0AB
:10211000CDF9A0B9AEB116F8010B21684860E08C8A
:10212000401EE084E08C4B464FF0000200970028F0
:10213000EBD14FF04001204600F0B8F930B1032058
:10214000D7E735F8020BC0F30800E6E7202084F853
:102150003D000020CDE70220CBE7FEE77FB500245D
:1021600015480094019402941249039401600125DA
:102170004FF440310561C0E90114057680F8204034
:102180000E49C0E90A14C561C46080F83040456159
:10219000FEF7C1FF08B1FEF780FECDE900456946B4
:1021A00005480294FEF79AFE002801D0FEF775FE5E
:1021B0007FBD000000200140582000200100000FDA
:1021C000114808B5016841F480010160016801F41B
:1021D00080010091016841F4001101600068002253
:1021E00000F40010009011461120FFF789FB112028
:1021F000FFF778FB002211463820FFF781FBBDE88E
:1022000008403820FFF76EBB3038024070B586B00A
:1022100014216846FEF72CF816480024016841F0A6
:1022200080010160016801F080010591016841F0C1
:1022300001010160016801F001010591016841F0AF
:102240000801016000680C4E00F008004FF4806542
:102250000590002229463046FFF7DEFA012000955E
:10226000CDE90104694630460394FFF7E7F906B06B
:1022700070BD000030380240000C02400C4810B520
:102280000A4901604FF4E1314160002181600C2274
:10229000C160C0E904128161C161FFF781FE0028BD
:1022A00003D0BDE81040FEF7F8BD10BD004400406B
:1022B00000210020FEE7FEE730B515460C46034638
:1022C00000F046F9A8420FD800212154401E0BD43B
:1022D0005FF00A01B3FBF1F201FB1232B3FBF1F341
:1022E00030322254401EF5D530BD70477047FFF79D
:1022F0009FBA000070B594B034216846FDF7B8FF6E
:1023000014210DA8FDF7B4FF1F480025016841F016
:1023100080510160006800F0805012901B480168F5
:1023200041F4404101600068022400F440401290F2
:1023300001200090000401908001CDE906400F26A5
:102340000896D820CDE909040B9468460C94FFF751
:1023500047FC08B172B6FEE7FFF704FB08B172B69E
:10236000FEE74FF4A050CDE90F504FF4E05011902C
:10237000CDE90D6405210DA8FFF72CFB002801D045
:1023800072B6FEE714B070BD4038024000700040E5
:102390000248016841F470010160704788ED00E077
:1023A00070B5044600680169E26821F440511143A8
:1023B00001612169A068E26908436169114308432A
:1023C0002168CA6849F20C639A430243CA602068D4
:1023D0004169A26921F4407111434161314920688A
:1023E000884202D03049884202D1FFF79DFB01E0CC
:1023F000FFF78AFBE2690023192164253226B2F532
:10240000004F626828D0A0FB0101930F9200FDF7F6
:10241000F7FE0146B0FBF5F06FF01802504301EBF8
:10242000800006EB0010B0FBF5F000F0F002B1FB0D
:10243000F5F002EB0012B1FBF5F06FF01803584312
:1024400001EB800006EB0010B0FBF5F000F00F0090
:1024500021681044886070BDA0FB010192185B41A7
:10246000FDF7CEFE0146B0FBF5F00201B1FBF5F041
:102470006FF01803584301EB800006EBC000B0FB7F
:10248000F5F000F0F80002EB4002B1FBF5F0584324
:1024900001EB800006EBC000B0FBF5F000F0070098
:1024A000D6E7000000100140001401402DE9F04182
:1024B000984617460E460446069D1DE0681C1BD034
:1024C0002DB1FFF7AFF9A0EB0800A84214D920689E
:1024D000C16821F4D071C1602068416921F0010117
:1024E0004161202084F83D0084F83E00002084F8FB
:1024F0003C000320BDE8F0812068006836EA000057
:1025000004D00020B842D9D00020F3E70120F9E739
:10251000FEE70907090E002804DB00F1E02080F83F
:102520000014704700F00F0000F1E02080F8141D47
:10253000704702E008C8121F08C1002AFAD170478C
:102540007047002001E001C1121F002AFBD1704733
:1025500000210A22B0FBF2F0491C0028FAD10846FB
:1025600070470000FFF76CF9FFF7C4FEFFF74EFE5F
:10257000FFF726FEFFF7F2FDFFF780FE4FF47A73B8
:1025800007220A490A48FFF78FFD01239C02002217
:1025900021460848FEF724FA0449224608394870C3
:1025A00005490648FEF72EFEFEE700000800002061
:1025B0000021002040200020200000205820002082
:1025C00000061016000610160000000000000000B3
:1025D00001020304060708090000000001020304C9
:1025E0000800001010000008180000182000000467
:1025F000280000143000000C3800001C40000002CD
:10260000480000125000000A5800001A600000063E
:10261000680000167000000E7800001E80000001A7
:10262000880000119000000998000019A000000522
:10263000A8000015B000000DB800001DC000000388
:10264000C8000013D000000BD800001BE0000007FA
:10265000E8000017F000000FF800001F08018010CC
:1026600010018008180180182001800428018014BE
:102670003001800C3801801C40018002480180122A
:102680005001800A5801801A600180066801801696
:102690007001800E7801801E8801801190018009F0
:1026A00098018019A0018005A8018015B001800D56
:1026B000B801801DC0018003C8018013D001800BC8
:1026C000D801801BE0018007E8018017F001800F2E
:1026D000F801801F0802401010024008180240183C
:1026E00020024004280240143002400C3802401CF2
:1026F000480240125002400A5802401A6002400646
:10270000680240167002400E7802401E8802401196
:102710009002400998024019A0024005A802401505
:10272000B002400DB802401DC0024003C802401371
:10273000D002400BD802401BE0024007E8024017DD
:10274000F002400FF802401F0803C0101003C00839
:102750001803C0182003C0042803C0143003C00CA1
:102760003803C01C4803C0125003C00A5803C01AE3
:102770006003C0066803C0167003C00E7803C01E55
:102780008803C0119003C0099803C019A003C005B5
:10279000A803C015B003C00DB803C01DC803C01303
:1027A000D003C00BD803C01BE003C007E803C01769
:1027B000F003C00FF803C01F080420101004200805
:1027C00018042018280420143004200C3804201C7D
:1027D000480420125004200A5804201A60042006DD
:1027E000680420167004200E7804201E880420112E
:1027F0009004200998042019A0042005A80420159D
:10280000B004200DB804201DC8042013D004200BF0
:10281000D804201BE0042007E8042017F004200F50
:10282000F804201F0805A0101005A0081805A0181E
:102830002805A0143005A00C3805A01C4805A012DE
:102840005005A00A5805A01A6005A0066805A01644
:102850007005A00E7805A01E8805A0119005A0099E
:102860009805A019A805A015B005A00DB805A01DD4
:10287000C805A013D005A00BD805A01BE005A00734
:10288000E805A017F005A00FF805A01F08066010C6
:102890001006600818066018280660143006600CE0
:1028A0003806601C480660125006600A5806601A16
:1028B000680660167006600E7806601E8806601155
:1028C0009006600998066019A8066015B006600DAC
:1028D000B806601DC8066013D006600BD806601BE2
:1028E000E0066007E8066017F006600FF806601F54
:1028F0000807E0101007E0081807E0182807E014A0
:102900003007E00C3807E01C4807E0125007E00AE7
:102910005807E01A6807E0167007E00E7807E01E17
:102920008807E0119007E0099807E019A807E0156B
:10293000B007E00DB807E01DC807E013D007E00BB3
:10294000D807E01BE807E017F007E00FF807E01FE3
:102950000808101018081018280810143008100C57
:102960003808101C480810125008100A5808101A8D
:10297000680810167008100E7808101E88081011CC
:102980009008100998081019A8081015B008100D23
:10299000B808101DC8081013D008100BD808101B59
:1029A000E8081017F008100FF808101F0809901019
:1029B00018099018280990143009900C3809901CB7
:1029C000480990125009900A5809901A68099016FF
:1029D0007009900E7809901E880990119809901935
:1029E000A8099015B009900DB809901DC809901359
:1029F000D009900BD809901BE8099017F009900FA7
:102A0000F809901F080A5010180A5018280A501484
:102A1000300A500C380A501C480A5012580A501AF2
:102A2000680A5016700A500E780A501E880A501113
:102A3000980A5019A80A5015B00A500DB80A501D2E
:102A4000C80A5013D00A500BD80A501BE80A501776
:102A5000F00A500FF80A501F080BD010180BD018AE
:102A6000280BD014300BD00C380BD01C480BD012D4
:102A7000580BD01A680BD016700BD00E780BD01EE6
:102A8000880BD011980BD019A80BD015B00BD00D16
:102A9000B80BD01DC80BD013D80BD01BE80BD01728
:102AA000F00BD00FF80BD01F080C3010180C30189A
:102AB000280C3014380C301C480C3012580C301ACA
:102AC000680C3016700C300E780C301E880C3011EB
:102AD000980C3019A80C3015B00C300DB80C301D06
:102AE000C80C3013D80C301BE80C3017F00C300F2A
:102AF000F80C301F080DB010180DB018280DB014C8
:102B0000380DB01C480DB012580DB01A680DB01633
:102B1000700DB00E780DB01E880DB011980DB01963
:102B2000A80DB015B80DB01DC80DB013D80DB01B51
:102B3000E80DB017F00DB00FF80DB01F080E7010B3
:102B4000180E7018280E7014380E701C480E701273
:102B5000580E701A680E7016780E701E880E70115E
:102B6000980E7019A80E7015B80E701DC80E70134F
:102B7000D80E701BE80E7017F00E700FF80E701F55
:102B8000080FF010180FF018280FF014380FF01C71
:102B9000480FF012580FF01A680FF016780FF01E59
:102BA000880FF011980FF019A80FF015B80FF01D4D
:102BB000C80FF013D80FF01BE80FF017F80FF01F35
:102BC00018100818281008143810081C481008128B
:102BD0005810081A681008167810081E8810081176
:102BE00098100819A8100815B810081DC810081367
:102BF000D810081BE8100817F810081F18118818BB
:102C0000281188143811881C481188125811881A04
:102C1000681188167811881E98118819A8118815CE
:102C2000B811881DC8118813D811881BE81188179E
:102C3000F811881F18124818281248143812481C16
:102C40005812481A681248167812481E98124819E5
:102C5000A8124815B812481DC8124813D812481BAC
:102C6000E8124817F812481F1813C8182813C81478
:102C70003813C81C5813C81A6813C8167813C81E0E
:102C80009813C819A813C815B813C81DD813C81BA2
:102C9000E813C817F813C81F181428183814281C6C
:102CA0005814281A681428167814281E98142819FD
:102CB000A8142815B814281DD814281BE8142817A0
:102CC000F814281F1815A8183815A81C5815A81A84
:102CD0006815A8167815A81E9815A819B815A81D66
:102CE000D815A81BE815A817F815A81F18166818F6
:102CF0003816681C5816681A7816681E98166819CF
:102D0000B816681DD816681BE8166817F816681FED
:102D10001817E8183817E81C5817E81A7817E81E2B
:102D20009817E819B817E81DD817E81BF817E81F17
:102D30003818181C5818181A7818181E98181819C6
:102D4000B818181DD818181BF818181F3819981C0F
:102D50005819981A7819981EB819981DD819981BDF
:102D6000F819981F381A581C781A581EB81A581D86
:102D7000D81A581BF81A581F381BD81C781BD81E95
:102D8000B81BD81DF81BD81F781C381EB81C381D5E
:102D9000F81C381F781DB81EF81DB81FF81E781FC4
:102DA000080000021000000118000003200080004D
:102DB0002800800230008001380080034800400273
:102DC00050004001580040036000C0006800C0028D
:102DD0007000C0017800C00388002002900020012C
:102DE00098002003A800A002B000A001B800A00332
:102DF000C8006002D0006001D8006003E800E00273
:102E0000F000E001F800E0030801100218011003CF
:102E100028019002300190013801900348015002CE
:102E2000580150036801D0027001D0017801D0032D
:102E30008801300298013003A801B002B801B00344
:102E4000C8017002D8017003E801F002F801F00334
:102E5000180208032802880238028803580248032F
:102E60006802C8027802C80398022803B802A803BF
:102E7000D8026803F802E803380398037803D803FC
:102E800008004000100020001800600028005000DA
:102E90003800700058006800080000201000001082
:102EA000180000302000000828000028300000181A
:102EB000380000384000000448000024500000148E
:102EC000580000346000000C6800002C7000001CEA
:102ED0007800003C80000002880000229000001270
:102EE00098000032A000000AA800002AB000001AD2
:102EF000B800003AC0000006C8000026D000001646
:102F0000D8000036E000000EE800002EF000001EA1
:102F1000F800003E080100211001001118010031E5
:102F20002001000928010029300100193801003969
:102F300040010005480100255001001558010035E9
:102F40006001000D6801002D7001001D7801003D39
:102F500080010003880100239001001398010033D1
:102F6000A001000BA801002BB001001BB801003B21
:102F7000C0010007C8010027D0010017D8010037A1
:102F8000E001000FE801002FF001001FF801003FF1
:102F90000802802010028010180280302002800871
:102FA00028028028300280183802803840028004CD
:102FB0004802802450028014580280346002800C41
:102FC0006802802C7002801C7802803C880280227B
:102FD0009002801298028032A002800AA802802A01
:102FE000B002801AB802803AC0028006C802802669
:102FF000D0028016D8028036E002800EE802802ED1
:10300000F002801EF802803E080380211003801128
:103010001803803120038009280380293003801998
:10302000380380394003800548038025500380150C
:10303000580380356003800D6803802D7003801D68
:103040007803803D880380239003801398038033A6
:10305000A003800BA803802BB003801BB803803B28
:10306000C0038007C8038027D0038017D8038037A8
:10307000E003800FE803802FF003801FF803803FF8
:103080000804402010044010180440302004400878
:1030900028044028300440183804403848044024AC
:1030A00050044014580440346004400C6804402C20
:1030B0007004401C7804403C880440229004401274
:1030C00098044032A004400AA804402AB004401AE0
:1030D000B804403AC0044006C8044026D004401654
:1030E000D8044036E004400EE804402EF004401EB0
:1030F000F804403E080540211005401118054031F4
:103100002005400928054029300540193805403977
:103110004805402550054015580540356005400DCF
:103120006805402D7005401D7805403D8805402309
:103130009005401398054033A005400BA805402B8F
:10314000B005401BB805403BC0054007C8054027F7
:10315000D0054017D8054037E005400FE805402F5F
:10316000F005401FF805403F0806C0201006C010BB
:103170001806C0302006C0082806C0283006C0182F
:103180003806C0384806C0245006C0145806C0345B
:103190006006C00C6806C02C7006C01C7806C03CD7
:1031A0008806C0229006C0129806C032A006C00A47
:1031B000A806C02AB006C01AB806C03AC806C0267B
:1031C000D006C016D806C036E006C00EE806C02EEF
:1031D000F006C01EF806C03E0807C0211007C01147
:1031E0001807C0312007C0092807C0293007C019B7
:1031F0003807C0394807C0255007C0155807C035E3
:103200006007C00D6807C02D7007C01D7807C03D5E
:103210008807C0239007C0139807C033A007C00BCE
:10322000A807C02BB007C01BB807C03BC807C02702
:10323000D007C017D807C037E007C00FE807C02F76
:10324000F007C01FF807C03F080820201008201012
:10325000180820302808202830082018380820387E
:103260004808202450082014580820346008200CF6
:103270006808202C7008201C7808203C8808202230
:103280009008201298082032A008200AA808202AB6
:10329000B008201AB808203AC8082026D0082016FE
:1032A000D8082036E008200EE808202EF008201E5E
:1032B000F808203E080920211009201118092031A2
:1032C00028092029300920193809203948092025E2
:1032D00050092015580920356009200D6809202D56
:1032E0007009201D7809203D8809202390092013AA
:1032F00098092033A009200BA809202BB009201B16
:10330000B809203BC8092027D0092017D809203741
:10331000E009200FE809202FF009201FF809203FBD
:10332000080AA020100AA010180AA030280AA02815
:10333000300AA018380AA038480AA024500AA0145D
:10334000580AA034600AA00C680AA02C700AA01CBD
:10335000780AA03C880AA022900AA012980AA032FB
:10336000A80AA02AB00AA01AB80AA03AC80AA02639
:10337000D00AA016D80AA036E00AA00EE80AA02EAD
:10338000F00AA01EF80AA03E080BA021100BA01105
:10339000180BA031280BA029300BA019380BA0392D
:1033A000480BA025500BA015580BA035600BA00DA5
:1033B000680BA02D700BA01D780BA03D880BA023DF
:1033C000900BA013980BA033A80BA02BB00BA01B45
:1033D000B80BA03BC80BA027D00BA017D80BA03769
:1033E000E00BA00FE80BA02FF00BA01FF80BA03FE5
:1033F000080C6020100C6010180C6030280C60283D
:10340000300C6018380C6038480C6024500C601484
:10341000580C6034680C602C700C601C780C603C9C
:10342000880C6022900C6012980C6032A80C602A04
:10343000B00C601AB80C603AC80C6026D00C60164C
:10344000D80C6036E00C600EE80C602EF00C601EAC
:10345000F80C603E080D6021100D6011180D6031F0
:10346000280D6029300D6019380D6039480D602530
:10347000500D6015580D6035680D602D700D601D84
:10348000780D603D880D6023900D6013980D6033BA
:10349000A80D602BB00D601BB80D603BC80D6027F8
:1034A000D00D6017D80D6037E00D600FE80D602F6C
:1034B000F00D601FF80D603F080EE020100EE010C8
:1034C000180EE030280EE028300EE018380EE038F4
:1034D000480EE024500EE014580EE034680EE02C44
:1034E000700EE01C780EE03C880EE022900EE01298
:1034F000980EE032A80EE02AB00EE01AB80EE03ABC
:10350000C80EE026D00EE016D80EE036E80EE02E0B
:10351000F00EE01EF80EE03E080FE021100FE01163
:10352000180FE031280FE029300FE019380FE0398B
:10353000480FE025500FE015580FE035680FE02DDB
:10354000700FE01D780FE03D880FE023900FE0132F
:10355000980FE033A80FE02BB00FE01BB80FE03B53
:10356000C80FE027D00FE017D80FE037E80FE02FA3
:10357000F00FE01FF80FE03F081010201810103077
:103580002810102830101018381010384810102447
:1035900050101014581010346810102C7010101C9B
:1035A0007810103C881010229010101298101032D1
:1035B000A810102AB010101AB810103AC81010260F
:1035C000D0101016D8101036E810102EF010101E63
:1035D000F810103E0811102118111031281110296F
:1035E00030111019381110394811102550111015CB
:1035F000581110356811102D7011101D7811103DE3
:10360000881110239011101398111033A811102B4A
:10361000B011101BB811103BC8111027D011101792
:10362000D8111037E811102FF011101FF811103FAA
:1036300008129020181290302812902830129018FA
:103640003812903848129024501290145812903426
:103650006812902C7012901C7812903C8812902264
:1036600098129032A812902AB012901AB812903A7A
:10367000C8129026D0129016D8129036E812902ECA
:10368000F012901EF812903E0813902118139031FA
:103690002813902930139019381390394813902526
:1036A00050139015581390356813902D7013901D7A
:1036B0007813903D8813902398139033A813902B80
:1036C000B013901BB813903BC8139027D0139017DA
:1036D000D8139037E813902FF013901FF813903FF2
:1036E0000814502018145030281450283014501842
:1036F0003814503848145024581450346814502C3E
:103700007014501C7814503C881450229814503275
:10371000A814502AB014501AB814503AC81450269D
:10372000D0145016D8145036E814502EF014501EF1
:10373000F814503E081550211815503128155029FD
:103740003015501938155039481550255815503531
:103750006815502D7015501D7815503D8815502353
:1037600098155033A815502BB015501BB815503B69
:10377000C8155027D0155017D8155037E815502FB9
:10378000F015501FF815503F0816D0201816D030ED
:103790002816D0283016D0183816D0384816D0241D
:1037A0005816D0346816D02C7016D01C7816D03C21
:1037B0008816D0229816D032A816D02AB016D01A61
:1037C000B816D03AC816D026D816D036E816D02E5D
:1037D000F016D01EF816D03E0817D0211817D03199
:1037E0002817D0293017D0193817D0394817D025C5
:1037F0005817D0356817D02D7017D01D7817D03DC9
:103800008817D0239817D033A817D02BB017D01B08
:10381000B817D03BC817D027D817D037E817D02F04
:10382000F017D01FF817D03F081830201818303084
:1038300028183028381830384818302458183034B0
:103840006818302C7018301C7818303C88183022DA
:1038500098183032A818302AB018301AB818303AF0
:10386000C8183026D8183036E818302EF018301E18
:10387000F818303E0819302118193031281930292C
:103880003819303948193025581930356819302D14
:103890007019301D7819303D88193023981930334C
:1038A000A819302BB019301BB819303BC819302774
:1038B000D8193037E819302FF019301FF819303F78
:1038C000081AB020181AB030281AB028381AB038A0
:1038D000481AB024581AB034681AB02C701AB01CA8
:1038E000781AB03C881AB022981AB032A81AB02AB6
:1038F000B81AB03AC81AB026D81AB036E81AB02E9C
:10390000F01AB01EF81AB03E081BB021181BB031D7
:10391000281BB029381BB039481BB025581BB035BF
:10392000681BB02D701BB01D781BB03D881BB023E9
:10393000981BB033A81BB02BB81BB03BC81BB027DB
:10394000D81BB037E81BB02FF01BB01FF81BB03FDF
:10395000081C7020181C7030281C7028381C703807
:10396000481C7024581C7034681C702C781C703CE7
:10397000881C7022981C7032A81C702AB81C703ADF
:10398000C81C7026D81C7036E81C702EF01C701EE7
:10399000F81C703E081D7021181D7031281D7029FB
:1039A000381D7039481D7025581D7035681D702DE3
:1039B000781D703D881D7023981D7033A81D702BD5
:1039C000B81D703BC81D7027D81D7037E81D702FBB
:1039D000F01D701FF81D703F081EF020181EF030FB
:1039E000281EF028381EF038481EF024581EF034E7
:1039F000681EF02C781EF03C881EF022981EF032D3
:103A0000A81EF02AB81EF03AC81EF026D81EF036BE
:103A1000E81EF02EF81EF03E081FF021181FF031AE
:103A2000281FF029381FF039481FF025581FF0359E
:103A3000681FF02D781FF03D881FF023981FF0338A
:103A4000A81FF02BB81FF03BC81FF027D81FF03776
:103A5000E81FF02FF81FF03F182008302820082812
:103A60003820083848200824582008346820082CBA
:103A70007820083C8820082298200832A820082AAC
:103A8000B820083AC8200826D8200836E820082E92
:103A9000F820083E18210831282108293821083942
:103AA00048210825582108356821082D7821083D2E
:103AB0008821082398210833A821082BB821083B26
:103AC000C8210827D8210837E821082FF821083F06
:103AD00018228830282288283822883848228824CA
:103AE000582288346822882C7822883C9822883290
:103AF000A822882AB822883AC8228826D82288365E
:103B0000E822882EF822883E182388312823882925
:103B10003823883948238825582388356823882DF9
:103B20007823883D98238833A823882BB823883BA3
:103B3000C8238827D8238837E823882FF823883F8D
:103B40001824483028244828382448385824483431
:103B50006824482C7824483C98244832A824482AD1
:103B6000B824483AC8244826D8244836E824482EA1
:103B7000F824483E18254831282548293825483951
:103B8000582548356825482D7825483D98254833DF
:103B9000A825482BB825483BC8254827D8254837AD
:103BA000E825482FF825483F1826C8302826C82879
:103BB0003826C8385826C8346826C82C7826C83C09
:103BC0009826C832A826C82AB826C83AD826C836A1
:103BD000E826C82EF826C83E1827C8312827C82945
:103BE0003827C8395827C8356827C82D7827C83DD1
:103BF0009827C833A827C82BB827C83BD827C83769
:103C0000E827C82FF827C83F182828303828283830
:103C1000582828346828282C7828283C98282832C6
:103C2000A828282AB828283AD8282836E828282E6C
:103C3000F828283E182928313829283958292835C4
:103C40006829282D7829283D98292833A829282B48
:103C5000B829283BD8292837E829282FF829283FD0
:103C6000182AA830382AA838582AA834682AA82C34
:103C7000782AA83C982AA832B82AA83AD82AA8367E
:103C8000E82AA82EF82AA83E182BA831382BA839E4
:103C9000582BA835682BA82D782BA83D982BA83336
:103CA000B82BA83BD82BA837E82BA82FF82BA83F78
:103CB000182C6830382C6838582C6834782C683CBC
:103CC000982C6832B82C683AD82C6836E82C682EC4
:103CD000F82C683E182D6831382D6839582D683514
:103CE000782D683D982D6833B82D683BD82D6837FE
:103CF000E82D682FF82D683F182EE830382EE83868
:103D0000582EE834782EE83C982EE832B82EE83A5F
:103D1000D82EE836F82EE83E182FE831382FE8394B
:103D2000582FE835782FE83D982FE833B82FE83B37
:103D3000D82FE837F82FE83F383018385830183483
:103D40007830183C98301832B830183AD8301836D5
:103D5000F830183E38311839583118357831183D57
:103D600098311833B831183BD8311837F831183F2B
:103D700038329838583298347832983CB832983A79
:103D8000D8329836F832983E3833983958339835C7
:103D90007833983DB833983BD8339837F833983F09
:103DA000383458387834583CB834583AD8345836BF
:103DB000F834583E383558397835583DB835583B81
:103DC000D8355837F835583F3836D8387836D83C53
:103DD000B836D83AF836D83E3837D8397837D83D5B
:103DE000B837D83BF837D83F7838383CB838383A05
:103DF000F838383E7839383DB839383BF839383FEB
:103E0000783AB83CF83AB83E783BB83DF83BB83F12
:103E1000F83C783EF83D783F0800000410000002AE
:103E200018000006200000012800000530000003F3
:103E300038000007400080004800800450008002E5
:103E400058008006600080016800800570008003D3
:103E500078008007880040049000400298004006E7
:103E6000A0004001A8004005B0004003B800400792
:103E7000C800C004D000C002D800C006E000C001E5
:103E8000E800C005F000C003F800C00708012004E6
:103E9000100120021801200628012005300120030E
:103EA000380120074801A0045001A0025801A006D3
:103EB0006001A0016801A0057001A0037801A007BE
:103EC000880160049001600298016006A801600505
:103ED000B0016003B8016007C801E004D001E0024E
:103EE000D801E006E801E005F001E003F801E00791
:103EF00008021004180210062802100530021003F0
:103F000038021007480290045002900258029006AE
:103F100068029005700290037802900788025004AE
:103F200098025006A8025005B0025003B80250078C
:103F3000C802D004D802D006E802D005F002D003AF
:103F4000F802D007080330041803300628033005B0
:103F5000380330074803B0045803B0066803B005BF
:103F60007003B0037803B0078803700498037006E9
:103F7000A8037005B8037007C803F004D803F0065F
:103F8000E803F005F803F0071804080628040805FC
:103F9000380408074804880458048806680488051B
:103FA0007804880798044806A8044805B804480718
:103FB000D804C806E804C805F804C8071805280688
:103FC000380528075805A8066805A8057805A80734
:103FD00098056806B8056807D805E806F805E807F3
:103FE000380618075806980678069807B80658073E
:103FF000F806D8077807B8070800800010004000CE
:104000001800C0002800A000300060003800E00068
:10401000480090005800D0006800B0007800F00020
:104020009800C800B800E800080000401000002018
:104030001800006020000010280000503000003000
:104040003800007040000008480000485000002878
:1040500058000068600000186800005870000038C0
:10406000780000788000000488000044900000245C
:1040700098000064A0000014A8000054B0000034B0
:10408000B8000074C000000CC800004CD000002C28
:10409000D800006CE000001CE800005CF000003C70
:1040A000F800007C0001000208010042100100221B
:1040B0001801006220010012280100523001003274
:1040C000380100724001000A4801004A5001002AEC
:1040D0005801006A6001001A6801005A7001003A34
:1040E0007801007A800100068801004690010026D0
:1040F00098010066A0010016A8010056B001003624
:10410000B8010076C001000EC801004ED001002E9B
:10411000D801006EE001001EE801005EF001003EE3
:10412000F801007E0802004110020021180200611F
:1041300020020011280200513002003138020071C3
:104140004002000948020049500200295802006953
:104150006002001968020059700200397802007983
:104160008002000588020045900200259802006543
:10417000A0020015A8020055B0020035B802007573
:10418000C002000DC802004DD002002DD802006D03
:10419000E002001DE802005DF002003DF802007D33
:1041A00008030043100300231803006320030013D7
:1041B0002803005330030033380300734003000B1F
:1041C0004803004B5003002B5803006B6003001B97
:1041D0006803005B7003003B7803007B80030007EB
:1041E000880300479003002798030067A003001787
:1041F000A8030057B0030037B8030077C003000FCF
:10420000C803004FD003002FD803006FE003001F46
:10421000E803005FF003003FF803007F08048040DC
:10422000100480201804806020048010280480502E
:10423000300480303804807040048008480480488E
:1042400050048028580480686004801868048058EE
:104250007004803878048078880480449004802436
:1042600098048064A0048014A8048054B0048034AE
:10427000B8048074C004800CC804804CD004802C26
:10428000D804806CE004801CE804805CF004803C6E
:10429000F804807C080580421005802218058062A1
:1042A0002005801228058052300580323805807242
:1042B0004005800A4805804A5005802A5805806AD2
:1042C0006005801A6805805A7005803A7805807A02
:1042D00080058006880580469005802698058066C2
:1042E000A0058016A8058056B0058036B8058076F2
:1042F000C005800EC805804ED005802ED805806E82
:10430000E005801EE805805EF005803EF805807EB1
:104310000806804110068021180680612006801161
:1043200028068051300680313806807140068009A9
:104330004806804950068029580680696006801921
:10434000680680597006803978068079880680452D
:104350009006802598068065A0068015A8068055E1
:10436000B0068035B8068075C006800DC806804D41
:10437000D006802DD806806DE006801DE806805DA1
:10438000F006803DF806807D0807804310078023F3
:104390001807806320078013280780533007803375
:1043A000380780734007800B4807804B5007802BED
:1043B0005807806B6007801B6807805B7007803B35
:1043C0007807807B88078047900780279807806759
:1043D000A0078017A8078057B0078037B8078077F5
:1043E000C007800FC807804FD007802FD807806F85
:1043F000E007801FE807805FF007803FF807807FB5
:10440000080840401008402018084060200840106C
:10441000280840503008403038084070480840486C
:1044200050084028580840686008401868084058FC
:104430007008403878084078880840449008402444
:1044400098084064A0084014A8084054B0084034BC
:10445000B8084074C008400CC808404CD008402C34
:10446000D808406CE008401CE808405CF008403C7C
:10447000F808407C080940421009402218094062AF
:104480002009401228094052300940323809407250
:104490004009400A4809404A5009402A5809406AE0
:1044A0006009401A6809405A7009403A7809407A10
:1044B000880940469009402698094066A0094016A0
:1044C000A8094056B0094036B8094076C009400EE8
:1044D000C809404ED009402ED809406EE009401E60
:1044E000E809405EF009403EF809407E080A404174
:1044F000100A4021180A4061200A4011280A405140
:10450000300A4031380A4071480A4049500A40296F
:10451000580A4069600A4019680A4059700A4039CF
:10452000780A4079880A4045900A4025980A4065F3
:10453000A00A4015A80A4055B00A4035B80A40758F
:10454000C00A400DC80A404DD00A402DD80A406D1F
:10455000E00A401DE80A405DF00A403DF80A407D4F
:10456000080B4043100B4023180B4063200B4013F3
:10457000280B4053300B4033380B4073480B404BF3
:10458000500B402B580B406B600B401B680B405B83
:10459000700B403B780B407B880B4047900B4027CB
:1045A000980B4067A00B4017A80B4057B00B403743
:1045B000B80B4077C00B400FC80B404FD00B402FBB
:1045C000D80B406FE00B401FE80B405FF00B403F03
:1045D000F80B407F080CC040100CC020180CC060C5
:1045E000200CC010280CC050300CC030380CC070EB
:1045F000480CC048500CC028580CC068600CC0184B
:10460000680CC058700CC038780CC078880CC04456
:10461000900CC024980CC064A00CC014A80CC0540A
:10462000B00CC034B80CC074C80CC04CD00CC02C3A
:10463000D80CC06CE00CC01CE80CC05CF00CC03C9A
:10464000F80CC07C080DC042100DC022180DC062CD
:10465000200DC012280DC052300DC032380DC0726E
:10466000480DC04A500DC02A580DC06A600DC01ACE
:10467000680DC05A700DC03A780DC07A880DC046DA
:10468000900DC026980DC066A00DC016A80DC0568E
:10469000B00DC036B80DC076C00DC00EC80DC04EEE
:1046A000D00DC02ED80DC06EE00DC01EE80DC05E4E
:1046B000F00DC03EF80DC07E080EC041100EC021A6
:1046C000180EC061200EC011280EC051300EC0312E
:1046D000380EC071480EC049500EC029580EC0692E
:1046E000600EC019680EC059700EC039780EC079BE
:1046F000880EC045900EC025980EC065A00EC0154E
:10470000A80EC055B00EC035B80EC075C80EC04D4D
:10471000D00EC02DD80EC06DE00EC01DE80EC05DDD
:10472000F00EC03DF80EC07D080FC043100FC0232F
:10473000180FC063200FC013280FC053300FC033B1
:10474000380FC073480FC04B500FC02B580FC06BB1
:10475000600FC01B680FC05B700FC03B780FC07B41
:10476000880FC047900FC027980FC067A00FC017D1
:10477000A80FC057B00FC037B80FC077C80FC04FD1
:10478000D00FC02FD80FC06FE00FC01FE80FC05F61
:10479000F00FC03FF80FC07F0810204010102020FD
:1047A0001810206028102050301020303810207051
:1047B00048102048501020285810206860102018F9
:1047C0006810205870102038781020788810204405
:1047D0009010202498102064A0102014A8102054B9
:1047E000B0102034B8102074C810204CD010202CE9
:1047F000D810206CE010201CE810205CF010203C49
:10480000F810207C0811204210112022181120627B
:10481000201120122811205230112032381120721C
:104820004811204A5011202A5811206A6011201A7C
:104830006811205A7011203A7811207A8811204688
:104840009011202698112066A0112016A81120563C
:10485000B0112036B8112076C811204ED011202E6C
:10486000D811206EE011201EE811205EF011203ECC
:10487000F811207E08122041101220211812206108
:10488000281220513012203138122071481220494C
:1048900050122029581220696012201968122059DC
:1048A0007012203978122079881220459012202524
:1048B00098122065A0122015A8122055B01220359C
:1048C000B8122075C812204DD012202DD812206D9C
:1048D000E012201DE812205DF012203DF812207D2C
:1048E0000813204310132023181320632813205388
:1048F00030132033381320734813204B5013202BD0
:104900005813206B6013201B6813205B7013203B2F
:104910007813207B88132047901320279813206753
:10492000A0132017A8132057B0132037B8132077EF
:10493000C813204FD013202FD813206FE013201F4F
:10494000E813205FF013203FF813207F0814A040E5
:104950001014A0201814A0602814A0503014A03007
:104960003814A0704814A0485014A0285814A06807
:104970006014A0186814A0587014A0387814A07897
:104980008814A0449014A0249814A064A814A054DF
:10499000B014A034B814A074C814A04CD014A02C27
:1049A000D814A06CE014A01CE814A05CF014A03C87
:1049B000F814A07C0815A0421015A0221815A062BA
:1049C0002815A0523015A0323815A0724815A04AFB
:1049D0005015A02A5815A06A6015A01A6815A05A8B
:1049E0007015A03A7815A07A8815A0469015A026D3
:1049F0009815A066A015A016A815A056B015A0364B
:104A0000B815A076C815A04ED015A02ED815A06E4A
:104A1000E015A01EE815A05EF015A03EF815A07EDA
:104A20000816A0411016A0211816A0612816A05142
:104A30003016A0313816A0714816A0495016A0298A
:104A40005816A0696016A0196816A0597016A039EA
:104A50007816A0798816A0459016A0259816A0650E
:104A6000A816A055B016A035B816A075C816A04D4A
:104A7000D016A02DD816A06DE016A01DE816A05DDA
:104A8000F016A03DF816A07D0817A0431017A0232C
:104A90001817A0632817A0533017A0333817A07336
:104AA0004817A04B5017A02B5817A06B6017A01BDE
:104AB0006817A05B7017A03B7817A07B8817A047EA
:104AC0009017A0279817A067A817A057B017A0376E
:104AD000B817A077C817A04FD017A02FD817A06F6E
:104AE000E017A01FE817A05FF017A03FF817A07FFE
:104AF000081860401018602018186060281860506E
:104B000030186030381860704818604850186028B5
:104B1000581860686818605870186038781860789D
:104B2000881860449018602498186064A81860542D
:104B3000B0186034B8186074C818604CD018602C75
:104B4000D818606CE018601CE818605CF018603CD5
:104B5000F818607C08196042101960221819606208
:104B60002819605230196032381960724819604A49
:104B70005019602A5819606A6019601A6819605AD9
:104B80007019603A7819607A881960469019602621
:104B900098196066A8196056B0196036B819607621
:104BA000C819604ED019602ED819606EE019601EC9
:104BB000E819605EF019603EF819607E081A6041DD
:104BC000101A6021181A6061281A6051301A603179
:104BD000381A6071481A6049501A6029581A606979
:104BE000681A6059701A6039781A6079881A6045B5
:104BF000901A6025981A6065A81A6055B01A603539
:104C0000B81A6075C81A604DD01A602DD81A606D38
:104C1000E01A601DE81A605DF01A603DF81A607DC8
:104C2000081B6043101B6023181B6063281B605324
:104C3000301B6033381B6073481B604B501B602B6C
:104C4000581B606B681B605B701B603B781B607B54
:104C5000881B6047901B6027981B6067A81B6057E4
:104C6000B01B6037B81B6077C81B604FD01B602F2C
:104C7000D81B606FE01B601FE81B605FF01B603F8C
:104C8000F81B607F081CE040101CE020181CE0604E
:104C9000281CE050301CE030381CE070481CE04814
:104CA000501CE028581CE068681CE058701CE03874
:104CB000781CE078881CE044901CE024981CE06498
:104CC000A81CE054B01CE034B81CE074C81CE04CD4
:104CD000D01CE02CD81CE06CE81CE05CF01CE03C34
:104CE000F81CE07C081DE042101DE022181DE06267
:104CF000281DE052301DE032381DE072481DE04AA8
:104D0000501DE02A581DE06A681DE05A701DE03A07
:104D1000781DE07A881DE046901DE026981DE0662B
:104D2000A81DE056B01DE036B81DE076C81DE04E67
:104D3000D01DE02ED81DE06EE01DE01EE81DE05EF7
:104D4000F01DE03EF81DE07E081EE041101EE0214F
:104D5000181EE061281EE051301EE031381EE0715F
:104D6000481EE049501EE029581EE069681EE059BF
:104D7000701EE039781EE079881EE045901EE0251F
:104D8000981EE065A81EE055B01EE035B81EE0751F
:104D9000C81EE04DD01EE02DD81EE06DE81EE05D7F
:104DA000F01EE03DF81EE07D081FE043101FE023E9
:104DB000181FE063281FE053301FE033381FE073F3
:104DC000481FE04B501FE02B581FE06B681FE05B53
:104DD000701FE03B781FE07B881FE047901FE027B3
:104DE000981FE067A81FE057B01FE037B81FE077B3
:104DF000C81FE04FD01FE02FD81FE06FE81FE05F13
:104E0000F01FE03FF81FE07F0820104018201060DE
:104E100028201050302010303820107048201048C2
:104E20005020102858201068682010587020103822
:104E30007820107888201044902010249820106446
:104E4000A8201054B0201034B8201074C820104C82
:104E5000D020102CD820106CE820105CF020103CE2
:104E6000F820107C08211042102110221821106215
:104E70002821105230211032382110724821104A56
:104E80005021102A5821106A6821105A7021103AB6
:104E90007821107A882110469021102698211066DA
:104EA000A8211056B0211036B8211076C821104E16
:104EB000D021102ED821106EE821105EF021103E76
:104EC000F821107E0822104118221061282210516A
:104ED00030221031382210714822104950221029F6
:104EE00058221069682210597022103978221079DE
:104EF000882210459022102598221065A82210556E
:104F0000B0221035B8221075C822104DD022102DB5
:104F1000D822106DE822105DF022103DF822107D9D
:104F20000823104318231063282310533023103311
:104F3000382310734823104B5023102B5823106B29
:104F40006823105B7023103B7823107B8823104765
:104F50009023102798231067A8231057B0231037E9
:104F6000B8231077C823104FD023102FD823106FE9
:104F7000E823105FF023103FF823107F08249040AF
:104F80001824906028249050302490303824907059
:104F900048249048502490285824906868249058B9
:104FA00070249038782490788824904498249064D1
:104FB000A8249054B0249034B8249074C824904C01
:104FC000D024902CD824906CE824905CF024903C61
:104FD000F824907C0825904218259062282590524C
:104FE00030259032382590724825904A5025902AD5
:104FF0005825906A6825905A7025903A7825907ABD
:10500000882590469025902698259066A82590564C
:10501000B0259036B8259076C825904ED025902E94
:10502000D825906EE825905EF025903EF825907E7C
:1050300008269041182690612826905130269031FC
:105040003826907148269049502690295826906914
:105050006826905970269039782690798826904550
:1050600098269065A8269055B0269035B82690755C
:10507000C826904DD026902DD826906DE826905DBC
:10508000F026903DF826907D0827904318279063DE
:105090002827905330279033382790734827904B18
:1050A0005027902B5827906B6827905B7027903B78
:1050B0007827907B8827904798279067A827905754
:1050C000B0279037B8279077C827904FD027902FD8
:1050D000D827906FE827905FF027903FF827907FC0
:1050E0000828504018285060282850503028503048
:1050F0003828507048285048582850686828505818
:10510000702850387828507888285044982850645F
:10511000A8285054B0285034B8285074C828504C8F
:10512000D028502CD828506CE828505CF028503CEF
:10513000F828507C082950421829506228295052DA
:1051400030295032382950724829504A5029502A63
:105150005829506A6829505A7029503A7829507A4B
:105160008829504698295066A8295056B0295036AB
:10517000B8295076C829504ED029502ED829506EC3
:10518000E829505EF029503EF829507E082A504107
:10519000182A5061282A5051302A5031382A50712B
:1051A000482A5049582A5069682A5059702A50395B
:1051B000782A5079882A5045982A5065A82A50554F
:1051C000B02A5035B82A5075C82A504DD02A502DD3
:1051D000D82A506DE82A505DF02A503DF82A507DBB
:1051E000082B5043182B5063282B5053302B50332F
:1051F000382B5073482B504B582B506B682B505BFF
:10520000702B503B782B507B882B5047982B506746
:10521000A82B5057B02B5037B82B5077C82B504F76
:10522000D02B502FD82B506FE82B505FF02B503FD6
:10523000F82B507F082CD040182CD060282CD05050
:10524000302CD030382CD070482CD048582CD06816
:10525000682CD058702CD038782CD078882CD0443A
:10526000982CD064A82CD054B02CD034B82CD07446
:10527000C82CD04CD82CD06CE82CD05CF02CD03C76
:10528000F82CD07C082DD042182DD062282DD05279
:10529000302DD032382DD072482DD04A582DD06ABA
:1052A000682DD05A702DD03A782DD07A882DD046DE
:1052B000982DD066A82DD056B02DD036B82DD076EA
:1052C000C82DD04ED02DD02ED82DD06EE82DD05E4A
:1052D000F02DD03EF82DD07E082ED041182ED06172
:1052E000282ED051302ED031382ED071482ED049B2
:1052F000582ED069682ED059702ED039782ED0799A
:10530000882ED045982ED065A82ED055B02ED035F9
:10531000B82ED075C82ED04DD82ED06DE82ED05DC9
:10532000F02ED03DF82ED07D082FD043182FD0631B
:10533000282FD053302FD033382FD073482FD04B55
:10534000582FD06B682FD05B702FD03B782FD07B3D
:10535000882FD047982FD067A82FD057B02FD0379D
:10536000B82FD077C82FD04FD82FD06FE82FD05F6D
:10537000F02FD03FF82FD07F083030401830306009
:10538000283030503830307048303048583030682D
:105390006830305870303038783030788830304469
:1053A00098303064A8303054B0303034B830307475
:1053B000C830304CD830306CE830305CF030303CA5
:1053C000F830307C083130421831306228313052A8
:1053D00030313032383130724831304A5831306AE9
:1053E0006831305A7031303A7831307A883130460D
:1053F00098313066A8313056B0313036B831307619
:10540000C831304ED831306EE831305EF031303E48
:10541000F831307E08323041183230612832305154
:105420003832307148323049583230696832305938
:105430007032303978323079883230459832306580
:10544000A8323055B0323035B8323075C832304DB0
:10545000D832306DE832305DF032303DF832307D98
:1054600008333043183330632833305338333073C4
:105470004833304B5833306B6833305B7033303BDC
:105480007833307B8833304798333067A8333057D0
:10549000B0333037B8333077C833304FD833306F0C
:1054A000E833305FF033303FF833307F0834B040BA
:1054B0001834B0602834B0503834B0704834B04834
:1054C0005834B0686834B0587034B0387834B07834
:1054D0008834B0449834B064A834B054B834B0744C
:1054E000C834B04CD834B06CE834B05CF034B03C64
:1054F000F834B07C0835B0421835B0622835B05267
:105500003835B0724835B04A5835B06A6835B05A47
:105510007035B03A7835B07A8835B0469835B0668F
:10552000A835B056B035B036B835B076C835B04EBF
:10553000D835B06EE835B05EF035B03EF835B07EA7
:105540000836B0411836B0612836B0513836B071DF
:105550004836B0495836B0696836B0597036B039F7
:105560007836B0798836B0459836B065A836B055EB
:10557000B836B075C836B04DD836B06DE836B05DC7
:10558000F036B03DF836B07D0837B0431837B06319
:105590002837B0533837B0734837B04B5837B06BF3
:1055A0006837B05B7037B03B7837B07B8837B0472F
:1055B0009837B067A837B057B837B077C837B04F0B
:1055C000D837B06FE837B05FF037B03FF837B07F0B
:1055D000083870401838706028387050383870704B
:1055E000483870485838706868387058783870781B
:1055F0008838704498387064A8387054B83870741B
:10560000C838704CD838706CE838705CF038703C32
:10561000F838707C08397042183970622839705235
:10562000383970724839704A5839706A6839705A16
:105630007039703A7839707A88397046983970665E
:10564000A8397056B8397076C839704ED839706E2E
:10565000E839705EF039703EF839707E083A704172
:10566000183A7061283A7051383A7071483A704966
:10567000583A7069683A7059783A7079883A704542
:10568000983A7065A83A7055B83A7075C83A704D36
:10569000D83A706DE83A705DF03A703DF83A707D36
:1056A000083B7043183B7063283B7053383B707362
:1056B000483B704B583B706B683B705B783B707B32
:1056C000883B7047983B7067A83B7057B83B707732
:1056D000C83B704FD83B706FE83B705FF03B703F4A
:1056E000F83B707F083CF040183CF060283CF050DC
:1056F000383CF070483CF048583CF068683CF05842
:10570000783CF078883CF044983CF064A83CF05435
:10571000B83CF074C83CF04CD83CF06CE83CF05C11
:10572000F83CF07C083DF042183DF062283DF05214
:10573000383DF072483DF04A583DF06A683DF05AF5
:10574000783DF07A883DF046983DF066A83DF056E9
:10575000B83DF076C83DF04ED83DF06EE83DF05EC5
:10576000F03DF03EF83DF07E083EF041183EF0611D
:10577000283EF051383EF071483EF049583EF069FD
:10578000683EF059783EF079883EF045983EF065E5
:10579000A83EF055B83EF075C83EF04DD83EF06DCD
:1057A000E83EF05DF83EF07D083FF043183FF063BF
:1057B000283FF053383FF073483FF04B583FF06BB1
:1057C000683FF05B783FF07B883FF047983FF06799
:1057D000A83FF057B83FF077C83FF04FD83FF06F81
:1057E000E83FF05FF83FF07F18400860284008501D
:1057F00038400870484008485840086868400858D1
:10580000784008788840084498400864A8400854C4
:10581000B8400874C840084CD840086CE840085CA0
:10582000F840087C084108421841086228410852A3
:10583000384108724841084A5841086A6841085A84
:105840007841087A8841084698410866A841085678
:10585000B8410876C841084ED841086EE841085E54
:10586000F841087E18420861284208513842087100
:1058700048420849584208696842085978420879FC
:105880008842084598420865A8420855B8420875FC
:10589000C842084DD842086DE842085DF842087DCC
:1058A0001843086328430853384308734843084B98
:1058B0005843086B6843085B7843087B8843084774
:1058C00098430867A8430857B8430877C843084F68
:1058D000D843086FE843085FF843087F184488609E
:1058E0002844885038448870484488485844886818
:1058F000684488587844887898448864A8448854D0
:10590000B8448874C844884CD844886CE844885C9F
:10591000F844887C18458862284588523845887242
:105920004845884A5845886A6845885A7845887A3B
:105930008845884698458866A8458856B84588763B
:10594000C845884ED845886EE845885EF845887E0B
:1059500018468861284688513846887148468849E3
:10596000584688696846885978468879984688658F
:10597000A8468855B8468875C846884DD846886D6B
:10598000E846885DF846887D18478863284788532D
:10599000384788734847884B5847886B6847885B07
:1059A0007847887B98478867A8478857B84788779B
:1059B000C847884FD847886FE847885FF847887F8F
:1059C000184848602848485038484870584848683F
:1059D000684848587848487898484864A8484854DF
:1059E000B8484874C848484CD848486CE848485CAF
:1059F000F848487C18494862284948523849487252
:105A00004849484A5849486A6849485A7849487A4A
:105A100098494866A8494856B8494876C849484E02
:105A2000D849486EE849485EF849487E184A4861B6
:105A3000284A4851384A4871584A4869684A48597A
:105A4000784A4879984A4865A84A4855B84A4875F6
:105A5000C84A484DD84A486DE84A485DF84A487DEA
:105A6000184B4863284B4853384B4873584B486B86
:105A7000684B485B784B487B984B4867A84B485726
:105A8000B84B4877C84B484FD84B486FE84B485FF6
:105A9000F84B487F184CC860284CC850384CC87028
:105AA000584CC868684CC858784CC878984CC8643A
:105AB000A84CC854B84CC874D84CC86CE84CC85CE6
:105AC000F84CC87C184DC862284DC852384DC87271
:105AD000584DC86A684DC85A784DC87A984DC866FE
